:020000040000FA
:100000000C94FC000C9424010C9424010C94240105
:100010000C9424010C9424010C9424010C942401CC
:100020000C9424010C9424010C9424010C942401BC
:100030000C9424010C94BE030C9424010C94240110
:100040000C94E5030C9424010C949C060C94CE06AD
:100050000C9424010C9424010C9424010C9424018C
:100060000C9424010C9424012A2A2A2A70617269B2
:100070007479206572726F7220666F722072657477
:1000800072696576656420636F6465002A2A2A2A8E
:10009000676F7420696E76616C6964206D616E6350
:1000A00068657374657220636F646500636F6E7654
:1000B000657274696E67206D616E636865737465DF
:1000C0007220636F646520746F2062696E6172795B
:1000D0002E2E2E002C2076616C75653A20002A2A7F
:1000E0002A2A676F742062616420626974207061DB
:1000F000747465726E20696E206275666665722C16
:1001000020636F756E743A2000676F7420656E64AB
:100110002074616700676F7420612076616C696488
:10012000207072656669782C2070726F63657373D6
:10013000696E672064617461206275666665722EFF
:100140002E2E006E6F2076616C696420646174618C
:1001500020666F756E6420696E20627566666572D2
:1001600000676F7420627566206E756D3A200046D8
:10017000534B2052464944205265616465722C20DD
:100180007869616F6C6162612074657374696E6710
:100190000D0A000000000900030200000405080029
:1001A0000000000000000000000001020408102010
:1001B0004080010204081020010204081020408041
:1001C00040040404040404040402020202020203C0
:1001D00003030303030202030000000023002600C0
:1001E000290000000000250028002B00000000006E
:1001F000240027002A00FE0611241FBECFEFD4E002
:10020000DEBFCDBF11E0A0E0B1E0EEE6F1E102C05B
:1002100005900D92A033B107D9F724E0A0E3B1E037
:1002200001C01D92AF39B207E1F710E0CCEFD0E08A
:1002300004C02197FE010E94AF08CB3FD107C9F748
:100240000E947D080C94B5080C9400008091000178
:100250000E9448058093F4039093F503682F8091E2
:1002600002010E941A052091F2033091F3032F5FDF
:100270003F4F3093F3032093F2038091F403909166
:10028000F5034091F0035091F10384179507F9F0BD
:100290009093F1038093F0030197C9F480913201A8
:1002A000909133018C3B42E094075CF4AC014F5FCA
:1002B0005F4F50933301409332018C5C9E4FFC01A1
:1002C000208381E090E09093F3038093F2030895FC
:1002D000FF920F931F93CF93DF9326E040E052EC01
:1002E00061E070E082E094E00E9444066FE671E015
:1002F00082E094E00E949E0768E873E180E090E06D
:100300000E945404C1E8D0E080E1888300E810E056
:10031000F8011082FF24F394F092F60388E390E052
:100320009093F8038093F70390938700809386005F
:1003300081E1888361E089E00E94DE04F801808128
:10034000806880838091F7039091F803B0E0A0E08B
:10035000B695A79597958795909389008093880087
:100360008091F6038061888386E291E09093050195
:1003700080930401F0926F0060E080910001DF91B2
:10038000CF911F910F91FF900C94DE04EF92FF929A
:100390001F93CF93DF932AE0289F7001299FF00CD1
:1003A0001124D0E0C0E010E1CE15DF055CF485B18A
:1003B000812785B964E670E080E090E00E945404F3
:1003C0002196F2CFDF91CF911F91FF90EF9008958A
:1003D0004F925F926F927F92AF92BF92CF92DF92D5
:1003E000EF92FF920F931F93CF93DF93CDB7DEB7BA
:1003F000C858D1090FB6F894DEBF0FBECDBF8C012F
:1004000065E171E082E094E00E949E07F801EB5CF8
:10041000FE4F30E020E0F12CE12C10E000E0CF01B5
:10042000845391408C3B92400CF04BC02A353105EF
:100430000CF047C08191082E000C990B8017910792
:1004400029F45FEFE51AF50A8C01E9CFA7014350C3
:1004500051094630510568F4A1E0B0E0AC0FBD1F72
:10046000A20FB31F0C932F5F3F4FEE24E394F12CA8
:10047000EBCFA701495051094630510598F4A1E04E
:10048000B0E0AC0FBD1FA20FB31F0C93D9011196A2
:1004900041E050E04C0F5D1FA40FB51F2E5F3F4F92
:1004A0000C93E3CF5FE0E516F1040CF494C0011562
:1004B000110509F090C069E071E082E094E00E94CB
:1004C0009E076CEA70E082E094E00E949E07FE01C5
:1004D00031968E01045A1F4F9E01255A3F4FD80175
:1004E0008081813009F0AAC091819111AEC08C93B6
:1004F00032961196E217F30799F7F801799622E1FF
:1005000030E0412C512C32018191082E000C990BC6
:10051000AA0BBB0B022E04C0880F991FAA1FBB1F7A
:100520000A94D2F7482A592A6A2A7B2A215031098B
:1005300058F75801EDE2AE0EB11CD12CC12CF801D8
:10054000E1908F0166E071E0E11002C068E071E0C7
:1005500082E094E00E948B070E2C000CFF08C7017C
:100560008C259D25A016B10609F076C082E094E0A6
:100570000E949A07EC14FD0409F470C06AE071E06F
:1005800082E094E00E948B072AE030E0B301A201F0
:1005900082E094E00E946A0885B198E1892785B9D4
:1005A00060ED77E080E090E0C857DF4F0FB6F89439
:1005B000DEBF0FBECDBFDF91CF911F910F91FF9096
:1005C000EF90DF90CF90BF90AF907F906F905F9053
:1005D0004F900C9454046EED70E082E094E00E9421
:1005E00067074AE050E0B70182E094E00E944408C7
:1005F00064ED70E082E094E00E9467074AE050E01A
:10060000B80182E094E00E944B0883E090E0C85774
:10061000DF4F0FB6F894DEBF0FBECDBFDF91CF9195
:100620001F910F91FF90EF90DF90CF90BF90AF9010
:100630007F906F905F904F900C94C601811105C020
:100640008181813011F41C9253CF6CE870E082E01C
:1006500094E00E949E07D9CF6C0171CF68E670E0EC
:10066000F6CF80913201909133018C3B92400CF493
:100670007EC010926F0061E671E082E094E00E941B
:10068000670760913001709131014AE050E082E0EB
:1006900094E00E944B0810923401A4E3B1E0FD0104
:1006A00025E631E08181082E000C990B84309105FC
:1006B00009F040C01182319643E0EF3EF40791F714
:1006C00090E080E070E060E030E020E04D91042EAA
:1006D000000C550B46175707D1F52F5F3F4F01967A
:1006E000BA018C3B42E0940789F78FEF9FEF9C01A2
:1006F00021503109293F310598F50E94E801809188
:100700003001909131010196909331018093300135
:100710001092F1031092F003109233011092320103
:1007200086E291E0909305018093040181E080933B
:100730006F0008958530910519F480818183BBCFC6
:100740000697029710F43183B6CF2183B4CF2F30B0
:1007500031051CF06130710551F221E030E0BFCF6E
:1007600063E471E082E094E00E949E07C8CF65E0F8
:1007700070E080E090E00C94540408951F920F9272
:100780000FB60F9211242F933F934F935F936F9364
:100790007F938F939F93AF93BF93EF93FF93E091DA
:1007A0000401F09105010995FF91EF91BF91AF917F
:1007B0009F918F917F916F915F914F913F912F9179
:1007C0000F900FBE0F901F9018951F920F920FB6AB
:1007D0000F9211242F933F938F939F93AF93BF93C7
:1007E0008091FE039091FF03A0910004B091010459
:1007F0003091FD0323E0230F2D3768F126E8230F06
:100800000296A11DB11D2093FD038093FE039093DA
:10081000FF03A0930004B09301048091F903909129
:10082000FA03A091FB03B091FC030196A11DB11D39
:100830008093F9039093FA03A093FB03B093FC0316
:10084000BF91AF919F918F913F912F910F900FBECC
:100850000F901F9018950196A11DB11DD4CF3FB7E1
:10086000F8948091F9039091FA03A091FB03B09161
:10087000FC0326B5A89B05C02F3F19F00196A11DCA
:10088000B11D3FBFBA2FA92F982F8827BC01CD01DA
:10089000620F711D811D911D42E0660F771F881F39
:1008A000991F4A95D1F708958F929F92AF92BF9268
:1008B000CF92DF92EF92FF926B017C010E942F0496
:1008C0004B015C01C114D104E104F104E9F00E9480
:1008D0008C080E942F04681979098A099B09683ECF
:1008E00073408105910570F321E0C21AD108E10837
:1008F000F10888EE880E83E0981EA11CB11CC1147B
:10090000D104E104F10429F7FF90EF90DF90CF903C
:10091000BF90AF909F908F900895789484B5836036
:1009200084BD85B5836085BDEEE6F0E080818160A1
:100930008083E1E8F0E082E08083808181608083D1
:10094000E0E8F0E0808181608083E1EBF0E080818D
:1009500084608083E0EBF0E080818160808387E8C1
:1009600080937A001092C1000895843081F028F4B9
:100970008230E9F08330F9F00895883071F08930E1
:1009800091F08530B9F4809180008F7D03C0809113
:1009900080008F778093800008958091B0008F77DA
:1009A0008093B00008958091B0008F7DF9CF84B519
:1009B0008F7784BD089584B58F7DFBCFCF93DF9370
:1009C00090E0FC01E655FE4F24918F539E4FFC01B1
:1009D00084918823C9F090E0880F991FFC01E451AD
:1009E000FE4FA591B491FC01EE51FE4FC591D491FB
:1009F00061110DC09FB7F8948C91209582238C9340
:100A00008881282328839FBFDF91CF91089562308A
:100A100051F49FB7F8943C91822F809583238C9357
:100A2000E8812E2BEFCF8FB7F894EC912E2B2C93DF
:100A30008FBFEACF1F93CF93DF93282F30E0F901C8
:100A4000ED56FE4F8491F901E655FE4FD491F90120
:100A5000EF53FE4FC491CC23A9F0162F81110E94B1
:100A6000B504EC2FF0E0EE0FFF1FEE51FE4FA59105
:100A7000B4918FB7F894EC91111108C0D095DE2392
:100A8000DC938FBFDF91CF911F910895DE2BF8CFBC
:100A9000CF93DF93282F30E0F901ED56FE4F84917C
:100AA000F901E655FE4FD491F901EF53FE4FC49181
:100AB000CC23A1F081110E94B504EC2FF0E0EE0FE1
:100AC000FF1FE852FE4FA591B491EC91ED2381E018
:100AD00090E009F480E0DF91CF91089580E090E00C
:100AE000FACFFC01918D228D892F90E0805C9F4F81
:100AF000821B91098F7399270895FC01918D828D36
:100B0000981731F0828DE80FF11D858D90E00895E2
:100B10008FEF9FEF0895FC01918D828D981761F002
:100B2000A28DAE0FBF2FB11D5D968C91928D9F5FF0
:100B30009F73928F90E008958FEF9FEF0895FC01CF
:100B4000538D448D252F30E0842F90E0821B930B32
:100B5000541710F0CF9608950197089584EF96E00A
:100B6000892B49F080E090E0892B29F00E94F4065F
:100B700081110C9400000895FC01A48DA80FB92FD9
:100B8000B11DA35ABF4F2C91848D90E001968F73B5
:100B90009927848FA689B7892C93A089B1898C91D4
:100BA00080648C93938D848D981306C00288F3899A
:100BB000E02D80818F7D80830895CF93DF93EC01BA
:100BC000888D8823B9F0AA89BB89E889F9898C9135
:100BD00085FD03C0808186FD0DC00FB607FCF7CFF1
:100BE0008C9185FFF2CF808185FFEDCFCE010E94F1
:100BF000BC05E9CFDF91CF910895EF92FF920F935B
:100C00001F93CF93DF93EC0181E0888F9B8D8C8DB8
:100C1000981316C0E889F989808185FF11C0EE8993
:100C2000FF896083E889F98980818064808381E01D
:100C300090E0DF91CF911F910F91FF90EF90089579
:100C4000F62E0B8D10E00F5F1F4F0F731127E02E54
:100C50008C8D8E110CC00FB607FCFACFE889F9898C
:100C6000808185FFF5CFCE010E94BC05F1CFEB8DD1
:100C7000EC0FFD2FF11DE35AFF4FF0820B8FEA8935
:100C8000FB8980818062D2CFCF92DF92EF92FF9278
:100C90001F93CF93DF93EC016A017B01122FE88948
:100CA000F98982E08083C11481EED806E104F10461
:100CB000A1F060E079E08DE390E0A70196010E9449
:100CC0008D082150310941095109569547953795AD
:100CD0002795211580E1380798F0E889F989108275
:100CE00060E874E88EE190E0A70196010E948D080B
:100CF0002150310941095109569547953795279556
:100D0000EC85FD853083EE85FF852083188EEC8988
:100D1000FD891083EA89FB89808188698083EA895B
:100D2000FB8980818F7D8083DF91CF911F91FF9020
:100D3000EF90DF90CF9008951F920F920FB60F9211
:100D400011242F938F939F93EF93FF93E0911204BD
:100D5000F09113048081E0911804F091190482FD50
:100D60001BC0908180911B048F5F8F7320911C04A6
:100D7000821741F0E0911B04F0E0EE5FFB4F958F8E
:100D800080931B04FF91EF919F918F912F910F9072
:100D90000FBE0F901F9018958081F4CF1F920F9275
:100DA0000FB60F9211242F933F934F935F936F933E
:100DB0007F938F939F93AF93BF93EF93FF9382E0C3
:100DC00094E00E94BC05FF91EF91BF91AF919F917C
:100DD0008F917F916F915F914F913F912F910F90E4
:100DE0000FBE0F901F90189582E094E00E9471054D
:100DF00021E0892B09F420E0822F0895E2E0F4E05D
:100E00001382128288EE93E0A0E0B0E084839583A1
:100E1000A683B7838FE191E09183808385EC90E096
:100E20009587848784EC90E09787868780EC90E0B4
:100E3000918B808B81EC90E0938B828B82EC90E0A5
:100E4000958B848B86EC90E0978B868B118E128E1F
:100E5000138E148E0895AF92BF92CF92DF92EF92CD
:100E6000FF920F931F93CF93DF936C017B018B0154
:100E7000040F151FEB015E01AE18BF08C017D107A4
:100E800059F06991D601ED91FC910190F081E02D2E
:100E9000C6010995892B79F7C501DF91CF911F9183
:100EA0000F91FF90EF90DF90CF90BF90AF9008959B
:100EB000FB0101900020E9F73197AF01461B570B6A
:100EC000DC01ED91FC910280F381E02D0994EF9219
:100ED000FF920F931F93CF93DF938C017B01D0E0A0
:100EE000C0E0F701EC0FFD1F6491662361F0D801AB
:100EF000ED91FC910190F081E02DC8010995892BBD
:100F000011F02196EECFCE01DF91CF911F910F917D
:100F1000FF90EF9008956115710511F00C9458073A
:100F200090E080E00895DC01ED91FC910190F0816A
:100F3000E02D09946DE271E00C9458070F931F9314
:100F4000CF93DF93EC010E9467078C01CE010E94D2
:100F50009A07800F911FDF91CF911F910F910895F4
:100F60008F929F92AF92BF92EF92FF920F931F9337
:100F7000CF93DF93CDB7DEB7A1970FB6F894DEBF5E
:100F80000FBECDBF7C01FA01CB0119A2223008F4BB
:100F90002AE08E010F5D1F4F822E912CB12CA12CC7
:100FA000BF01A50194010E948D08F901CA016A30B0
:100FB0000CF5605DD8016E938D01232B242B252B1E
:100FC00079F790E080E0109721F0BD01C7010E9401
:100FD0005807A1960FB6F894DEBF0FBECDBFDF91C4
:100FE000CF911F910F91FF90EF90BF90AF909F9086
:100FF0008F900895695CDECFCF92DF92EF92FF92DF
:101000000F931F93CF93DF932115310581F4DC01FA
:10101000ED91FC910190F081E02D642FDF91CF9153
:101020001F910F91FF90EF90DF90CF9009942A309D
:10103000310501F52AE077FF1DC06A017B01EC0153
:101040006DE20E9493078C0144275527BA014C1981
:101050005D096E097F092AE0CE010E94B007800F6A
:10106000911FDF91CF911F910F91FF90EF90DF9033
:10107000CF900895DF91CF911F910F91FF90EF9046
:10108000DF90CF900C94B0079A01AB01770F660BFD
:10109000770B0C94FC070F931F93CF93DF93EC0116
:1010A0000E9444088C01CE010E949A07800F911F74
:1010B000DF91CF911F910F9108952115310541F4D2
:1010C000DC01ED91FC910190F081E02D642F0994F9
:1010D0000C94B0070F931F93CF93DF93EC010E9402
:1010E0005D088C01CE010E949A07800F911FDF914D
:1010F000CF911F910F91089508950E948D040E9431
:101100007C080E946801CEEAD5E00E943103209756
:10111000E1F30E94AE05F9CF0895A1E21A2EAA1BB1
:10112000BB1BFD010DC0AA1FBB1FEE1FFF1FA21797
:10113000B307E407F50720F0A21BB30BE40BF50B94
:10114000661F771F881F991F1A9469F7609570951D
:10115000809590959B01AC01BD01CF010895EE0FE4
:10116000FF1F0590F491E02D0994F894FFCF07003C
:101170000500BD0331003000676F742076616C6933
:101180006420636F64653A200000000000FD052BB9
:0E119000079F05DD0571058B057D050D0A0025
:103E000001C0B7C0112484B790E89093610010926C
:103E10006100882361F0982F9A70923041F081FF01
:103E200002C097EF94BF282E80E0C6D0E9C085E09D
:103E30008093810082E08093C00088E18093C1007C
:103E400080E18093C40086E08093C2008EE0B4D00D
:103E5000259A84E020E33CEF91E0309385002093A5
:103E6000840096BBB09BFECF1D9AA8954091C000E0
:103E700047FD02C0815089F793D0813479F490D006
:103E8000182FA0D0123811F480E004C088E0113857
:103E900009F083E07ED080E17CD0EECF823419F44B
:103EA00084E198D0F8CF853411F485E0FACF8535D8
:103EB00041F476D0C82F74D0D82FCC0FDD1F82D01C
:103EC000EACF863519F484E085D0DECF843691F5CB
:103ED00067D066D0F82E64D0D82E00E011E05801EB
:103EE0008FEFA81AB80A5CD0F80180838501FA1018
:103EF000F6CF68D0F5E4DF1201C0FFCF50E040E01C
:103F000063E0CE0136D08E01E0E0F1E06F0182E0A7
:103F1000C80ED11C4081518161E0C8012AD00E5FDA
:103F20001F4FF601FC10F2CF50E040E065E0CE01FB
:103F300020D0B1CF843771F433D032D0F82E30D0C6
:103F400041D08E01F80185918F0123D0FA94F110B0
:103F5000F9CFA1CF853739F435D08EE11AD084E975
:103F600018D08BE097CF813509F0A9CF88E024D015
:103F7000A6CFFC010A0167BFE895112407B600FC33
:103F8000FDCF667029F0452B19F481E187BFE895D4
:103F900008959091C00095FFFCCF8093C6000895CE
:103FA0008091C00087FFFCCF8091C00084FD01C0DC
:103FB000A8958091C6000895E0E6F0E098E190832E
:103FC00080830895EDDF803219F088E0F5DFFFCFC0
:103FD00084E1DFCFCF93C82FE3DFC150E9F7CF9162
:023FE000F1CF1F
:023FFE000008B9
:00000001FF
